:020000040003F7
:10000000B8890020C1030300C9030300CB03030028
:10001000CD030300CF030300D10303000000000061
:10002000000000000000000000000000D3030300F7
:10003000D503030000000000D7030300D903030029
:10004000DB030300DB030300F10F0300DB0303000A
:10005000DB030300DB030300E90A0300DB03030007
:10006000DB030300A10F0300DB030300DB0303003A
:10007000DB030300DB030300DB030300DB030300FC
:10008000DB0303008D0B0300DB030300DB03030032
:10009000DB030300DB030300FD0B0300DB030300B2
:1000A000DB030300DB030300DB030300DB030300CC
:1000B000DB030300DB03030000000000000000007E
:1000C000DB030300DB030300DB030300DB030300AC
:1000D000DB030300DB030300DB030300000000007D
:1000E0000000000000000000000000000000000010
:1000F0000000000000000000000000000000000000
:1001000000000000000000000000000000000000EF
:1001100000000000000000000000000000000000DF
:1001200000000000000000000000000000000000CF
:1001300000000000000000000000000000000000BF
:1001400000000000000000000000000000000000AF
:10015000000000000000000000000000000000009F
:10016000000000000000000000000000000000008F
:10017000000000000000000000000000000000007F
:10018000000000000000000000000000000000006F
:10019000000000000000000000000000000000005F
:1001A000000000000000000000000000000000004F
:1001B000000000000000000000000000000000003F
:1001C000000000000000000000000000000000002F
:1001D000000000000000000000000000000000001F
:1001E000000000000000000000000000000000000F
:1001F00000000000000000000000000000000000FF
:10020000DFF80CD000F092F900480047F5750300C4
:10021000B889002030B450E8012F93B2C489234438
:100220008489A34228BF1B1B0489A34202BFBFF3DA
:100230002F8F002007E0C3EA020340E80134002CBE
:10024000E9D14FF001000A6030BC704750E8012F3F
:10025000C2EA024240E801210029F7D1704730B4D8
:1002600050E8022F1FFAA2F3C488A34202BFBFF3D3
:100270002F8F00200DE0C48923448489A34228BF26
:100280001B1BC2EA034340E80234002CE8D14FF0C4
:1002900001000A6030BC704750E8022FC2EA2242D7
:1002A00040E802210029F7D17047034653E8022FA6
:1002B000D988B2EB324F4FF0000017BF92B241EA3B
:1002C000014142EA014104E05A68B2EB324F08BFF3
:1002D000012043E80212002AE8D1704730B40446F6
:1002E00054E8000F0D4644E80053002BF8D1156088
:1002F00030BC704730B4044654E8000F40EA0105B2
:1003000044E80053002BF7D1156030BC704730B47F
:10031000044654E8000F00EA010544E80053002BAE
:10032000F7D1156030BC704730B4044654E8000F74
:1003300080EA010544E80053002BF7D1156030BC7A
:10034000704730B4044654E8000F00EB010544E860
:100350000053002BF7D1156030BC704730B4044611
:1003600054E8000FA0EB010544E80053002BF7D13F
:10037000156030BC704770B404464FF0000054E87C
:10038000006F0D68AE4207BF44E80023012044E837
:1003900000630E60002B1CBF0020F0E770BC7047AC
:1003A00030B4044654E8000F88422CBF451A054675
:1003B00044E80053002BF5D1156030BC70470000B5
:1003C0000648804706480047FEE7FEE7FEE7FEE7EF
:1003D000FEE7FEE7FEE7FEE7FEE7FEE7010C0300AF
:1003E000010203002DE9F05F0546002092469B467E
:1003F00088460646814640241BE02846414647463B
:10040000224600F082F853465A46C01A914110D352
:1004100011461846224600F016F82D1A67EB01081F
:100420004F4622460120002100F00DF817EB00098D
:100430004E41201EA4F10104DFDC484631462A4625
:100440004346BDE8F09F202A04DB203A00FA02F17F
:10045000002070479140C2F1200320FA03F31943B2
:10046000904070470048704754F9030010B5431A94
:10047000934209D28318881803E010F8011D03F88D
:10048000011D521EF9D210BD40EA01039B0703D0A3
:1004900009E008C9121F08C0042AFAD203E011F8C3
:1004A000013B00F8013B521EF9D210BDD2B201E06F
:1004B00000F8012B491EFBD270470022F6E710B569
:1004C00013460A4604461946FFF7F0FF204610BDC2
:1004D000421C10F8011B0029FBD1801A704730B56F
:1004E00004460020034600E05B1C934203D2E05C1C
:1004F000CD5C401BF8D030BD034611F8012B00F84D
:10050000012B002AF9D118467047202A04DB203A33
:1005100021FA02F00021704721FA02F3D040C2F123
:10052000200291400843194670470000064C074DD1
:1005300006E0E06840F0010394E8070098471034B3
:10054000AC42F6D3FFF760FE640D0400840D040096
:1005500070B58C1810F8015B15F0070301D110F885
:10056000013B2A1106D110F8012B03E010F8016BB2
:1005700001F8016B5B1EF9D12B0705D40023521E35
:100580000DD401F8013BFAE710F8013BCB1A921C9D
:1005900003E013F8015B01F8015B521EF9D5A1429B
:1005A000D8D3002070BD00002DE9F04F8FB034216A
:1005B0006846FFF782FFFE4800F052FAFC49CA1C69
:1005C0008B789A5C90427CD18A460C464A78F948EE
:1005D000F949401AC108032000EB01408346F7A106
:1005E00009F0B2F961780024F84EDFF8E4930125B0
:1005F0006F464FF0A00856297ED013DC50294DD00D
:10060000512965D0522978D054295AD19AF802102C
:10061000012956D19AF8030001066FD5C1076ED0A3
:100620003570FBE05E296BD093296AD0942969D09C
:10063000952946D19AF8031000240F46491E132924
:1006400072D8E34889F854704030CB4614210D909D
:10065000FFF733FF3A460AF104010D98FFF706FF52
:1006600099F85400001D00F0FF091AF80970781E6F
:100670001328E5D8D6488BF8697055301421834685
:10068000FFF71BFF0AEB09013A465846491CFFF7E2
:10069000EDFE07F0A7FA002876D0B6E18DF80080CD
:1006A00060208DF8010099F814208DF80220C849C7
:1006B000F81CFFF7DBFE684600F0D2F999F8141039
:1006C00000E080E00DF103028854091DC9B295E1F4
:1006D0009AF80200002876D04F4689F814001A28AC
:1006E00001D91A2139751421B948FFF7E6FE3A7D80
:1006F0000AF10301B64806E047E038E099E08CE0F3
:10070000AEE0CDE016E1FFF7B1FEB14803F054FDD5
:1007100006280FD2DFE800F0030912171C213C83E2
:10072000397E41F0010104E06EE13C83397E41F005
:100730000201397607F056FAA0B114E03C83397E05
:1007400041F00401F5E73C83397E41F00801F0E710
:100750003C83397E41F01001EBE73C83397E41F068
:100760002001E6E735718DF80080612050E18DF8B9
:10077000008062208DF801008DF8025099F8180071
:100780008DF80300384634E13CE102208DF8030087
:100790009AF80210012938D19AF8030080B389F839
:1007A0006A50A9F81840C10704D099F8180040F021
:1007B000010005E0810707D599F8180040F0020014
:1007C00089F8180021E068E0410704D599F818007D
:1007D00040F00400F4E7010704D599F8180040F050
:1007E0000800EDE7C10604D599F8180040F01000A4
:1007F000E6E7800609D599F8180040F02000DFE709
:10080000FFE7A9F8184089F86A4007F0EBF900B94A
:1008100035718DF800806320FAE03470810701D5CE
:10082000757000E07470800603D54FF4FA700DF017
:10083000ADFA8DF8008064208DF801008DF802502B
:10084000B07A717A000140EAC100317A40EA810051
:10085000B17940EA4100717908438DF80300C7E09F
:100860009AF80310122918D19AF80400342814D1E8
:1008700007F05EF98DF800806E208DF801008DF88C
:1008800002508DF80340684600F0EAF88DF8040045
:10089000052168460EF01BF835710FB0BDE8F08FEA
:1008A0008DF80080A3208DF80100F91CD9F81C00F8
:1008B0000EF03AF9C01CC4B23919D9F820000EF074
:1008C00033F92044C0B23918D9F824200A60B9F8A5
:1008D00028208A80801DC0B23918D9F82A200A60E1
:1008E000B9F82E208A80801DC0B23918D9F8362078
:1008F0000A60B9F83A208A80801DC0B23918D9F848
:1009000030200A60B9F834208A80801DC0B23918BE
:10091000B9F83C200A80C01C99F83E20C4B28A7005
:10092000E01E8DF80200684600F09AF83855641C05
:10093000E1B263E09AF802002328AED11C49484690
:10094000D1F80310C9F81C101949D1F80710C9F8DB
:100950002010174951F80B2FC9F824208988A9F8CD
:100960002810134951F8112FC9F82A208988A9F8AD
:100970002E100F4951F8172FC0F83620898841876B
:100980000B4951F81D2F026389888186084931F887
:10099000232F8287897880F83E1007F023F900B969
:1009A0003571D9E9072358460AA108F0D4FF1BE0A6
:1009B00000590020940E0400940D0400413020637F
:1009C0006D643A253032580A00000000F1550020CD
:1009D000F05200206665617475733A253038582CE2
:1009E00020253038580A00008DF80080A4200FE040
:1009F000684600F035F88DF80400052168460DF0D2
:100A000066FF4AE7357100E001248DF80080A520DB
:100A10008DF801008DF802508DF80340E8E710B51D
:100A200000231A4603E0845C521C2344D2B28A425B
:100A3000F9D3D8B210BD00000149024802F01EB837
:100A4000DC550020703E002013B50449CB880146D8
:100A5000024801AA243002F07BFA1CBD303E00207F
:100A600010B5024600209178C91CCBB2014604E0C3
:100A7000545C491C2044C0B2C9B29942F8D310BD9D
:100A8000174A0021B0FBF2F302FB130042F210728E
:100A900004E0491CA0F51C50C9B210389042F8D2AD
:100AA000104A4FF47A731170002103E0491CC9B257
:100AB000A0F57A709842F9D25170002102E0491CE9
:100AC000C9B264386428FAD29170002102E0491C4E
:100AD000C9B20A380A28FAD2D170107170470000E2
:100AE000A08601003A3E00202DE9F8430025DFF8FA
:100AF00094804FF4807601242F460095304608F00C
:100B0000DFFC38B1D8F80403204203D0304608F0A7
:100B1000CDFC2543361D64007F1CB6B2082FEDD3F3
:100B20004FF4BE74204608F0CBFC48B1204608F0D4
:100B3000BDFC45F000456A460121002008F094FC08
:100B400015F0FF0F16D0012600242E420ED008EB20
:100B50008401D1F81005D1F81015C0F304200A4A19
:100B6000C1F3014152F8242002B190477600641C81
:100B7000082CEAD3002D02DA68460BF041FCBDE8F0
:100B8000F883000000600040005E00200249024837
:100B9000091F096800680847C051002000F02EBAFC
:100BA00070B50E46144900EB400001EBC005144639
:100BB000E86A183520B101280FD0022805D113E0CA
:100BC000284600F04FFAA04201D2002411E022464C
:100BD0003146284600F07EFA0BE0284600F042FA43
:100BE000A042F4D20446F2E73146284600F045FA26
:100BF0000446204670BD0000B066002009F06CBBC2
:100C0000F0B5D54AD5494FF080541368D4F8300177
:100C10000978D4F83421451CC1F3031107D0844668
:100C2000164601270025BCF1060F04D013E003F09F
:100C3000FF0C0E46F5E7032E05D0042E03D0052E3B
:100C400001D0062E07D1B4F82463DFF814C3C6F32D
:100C50000426CCF80060DEB2062E06D1032904D1AA
:100C6000DFF804C3BF4ECCF87460461C06D084463F
:100C70004FEA0206BCF1060F04D013E003F0FF0CAC
:100C80000E46F7E7032E05D0042E03D0052E01D023
:100C9000062E07D1D4F84462DFF8D0C2C6F342363C
:100CA000CCF80060DEB2062E08D1032906D1B04E82
:100CB000D6F800C02CF0807CC6F800C0461C05D0D9
:100CC00084461646BCF1060F04D014E003F0FF0C76
:100CD0000E46F7E7032E05D0042E03D0052E01D0D3
:100CE000062E08D14FF08046C6F80C51C6F81051B8
:100CF0009E4E361F3560DEB2062E08D1032906D17E
:100D0000DFF868C203260CF1640CCCF80060DEB298
:100D1000062E11D103290FD1DFF858C20526CCF8D1
:100D20000060944E78363760924E083635600CF18C
:100D3000040C3F26CCF80060461C05D084461646BD
:100D4000BCF1060F04D087E003F0FF0C0E46F7E776
:100D5000032E7CD0042E7FD0052E01D0062E7BD111
:100D6000854E3668DFF814C2CCF80060824E361D1E
:100D700036680CF1040CCCF800607F4E08363668FB
:100D80000CF1040CCCF800607B4E0C3636680CF18C
:100D9000040CCCF80060784E103636680CF1040C68
:100DA000CCF80060744E143636680CF1040CCCF8A4
:100DB0000060714E18363668DFF8C0C10CF1200CA7
:100DC000CCF800606C4E1C3636680CF1040CCCF884
:100DD0000060694E203636680CF1040CCCF80060D7
:100DE000654E243636680CF1040CCCF80060624E77
:100DF000283636680CF1040CCCF800605E4E2C36B8
:100E000036680CF1040CCCF800605B4E3036366866
:100E1000DFF868C10CF1400CCCF80060564E343657
:100E200036680CF1040CCCF80060534E3836366846
:100E30000CF1040CCCF800604F4E3C3636680CF1D7
:100E4000040CCCF800604C4E4036366800E003E0FD
:100E50000CF1040CCCF80060461C05D08446164604
:100E6000BCF1060F04D011E003F0FF0C0E46F7E7CB
:100E7000032E05D0042E03D0052E01D0062E05D159
:100E8000D4F858423E4E04F04F043460441C04D061
:100E900003461146062B02D010E0DBB2FAE7032925
:100EA00005D0042903D0052901D0062906D13549EA
:100EB0000B68DB0702D06FF001030B6006280CD132
:100EC000032A0AD0042A08D0052A06D0062A04D10B
:100ED0002D48016841F4806101602548743801683B
:100EE00041F470010160BFF34F8FBFF36F8F4FF07C
:100EF0001021D1F8000200280BDBD1F804020028F1
:100F000007DBD1F80002152803D021491F480860EB
:100F1000F0BD204A176020480368002BFCD0062350
:100F2000C1F800320468002CFCD0C1F8043201681A
:100F30000029FCD0156001680029FCD0BFF34F8F59
:100F40000B48F0380168154A01F4E0611143016073
:100F5000BFF34F8F00BFFDE7E00F00F0E80F00F098
:100F6000403501400DF0ADBA00C007403C050040DF
:100F7000FCED00E0105600400404001020C50040C5
:100F8000E40E0040000400403C1700400090D003F5
:100F90008C52002004E5014000E401400400FA0501
:100FA0002DE9F047104E042700244FF4A0784FF4A9
:100FB000803900BF08EB840509FA04F0715961B16A
:100FC000D6F80413014208D02946304609F040FA09
:100FD0000648D0E9002128469047641CE4B2BC4290
:100FE000E8D3BDE8F087000000900040AC5E002030
:100FF00001480068004700008C51002010B5124CD9
:1010000002202061606111A0A06104F17800E0611C
:101010004FF4007020620020A06260620BA1A16406
:10102000E06204F51E71E1641021A065C4E91410AA
:10103000E06509A1E01DFFF75FFA08A12046FFF770
:101040005BFA2020A07110BDB06600205465726D5F
:10105000696E616C000000005254540053454747CC
:10106000455200000269C1688A4203D88068401A6C
:10107000104400E0501A401E70472DE9F047C46844
:101080001746894606464FF000083069A04201D94C
:10109000051B02E0B168201A0D1AB0686D1E001B16
:1010A000A84200D80546BD4200D33D4670682A4696
:1010B00020444946FFF7DAF9B0687F1B2C44A84466
:1010C000A944A04200D10024F460002FDDD14046A5
:1010D000BDE8F0872DE9F04104468846D4E90207CF
:1010E000C51BE168606816460844B54206D941460A
:1010F000FFF7BCF9B819E060BDE8F0812A46414627
:10110000FFF7B4F9761B08EB050132466068FFF77C
:10111000ADF9E660F0E702E008C8121F08C1002A36
:10112000FAD170477047002001E001C1121F002A68
:10113000FBD170470121202803DA81400548014096
:1011400003E0402802DA2038814009B101207047CD
:1011500000207047FC06FFBD31B500252C46214616
:10116000684607F035F900B16D1C641C142CF6D3E9
:10117000284638BD10B560B159B102780B785208D5
:10118000B2EB530F05D10622401C491CFFF7A7F90B
:1011900008B1002010BD012010BD800701D0002043
:1011A000704701207047C3688B4206D8114400691C
:1011B000491E814201D801207047002070472DE967
:1011C000F0411646054600208A880C6811E0271871
:1011D000215C7F78AF420AD1491E8AB221181A8059
:1011E0003046891CFFF742F90020BDE8F081084431
:1011F000401C8242EBD80520F7E700002DE9F041C2
:10120000A2B01F20ADF83C0039483B4D062680684F
:101210001D9038A03C2100681F90287E8DF87D002D
:101220006846FFF74AF900248DF800408DF8024027
:101230008DF803601DA8059041F62600ADF850001A
:101240001FA816900126032714A8ADF854700A9021
:10125000ADF810608DF82C600FAAA5F1400168462A
:1012600000F018FD8046254825494246401AC0082E
:1012700007EB004023A108F067FB5FEA080001D0FC
:1012800000F034FA2549FF201B4F88701A4811944A
:1012900040381090BDF83C0012941394ADF844000F
:1012A0002A7D213F501C387009207870951C124906
:1012B000B81CFFF7DBF81297ADF84C50182117A8AF
:1012C000FFF7FBF8A02019908DF8716013488DF896
:1012D0005C608DF87040ADF8684017AA10A9801CBA
:1012E00072DF002801D000F001FA22B0BDE8F081E1
:1012F00058F2030001000000F0520020940E040098
:10130000940D0400626C655F616476646174615F72
:10131000656E636F64653A2564000000303E00200E
:10132000104810B50121807873DF04460E480F493C
:101330002246401AC008032101EB00400CA108F02E
:1013400003FB24B1082C02D0204600F0CFF9022084
:1013500001F04AFF08B100F0C9F90C4901204871B9
:1013600010BD0000303E0020940E0400940D0400D7
:1013700073645F626C655F6761705F6164765F7301
:10138000746172743A25303458000000F155002021
:1013900070B58CB015460E4600236C46C3F10F01A4
:1013A000415CE1545B1C102BF8D30D2104F11000BB
:1013B000FFF783F80020C0F10F02315C2244401C8B
:1013C00011740328F7D3684646DF0020C0F10F01EF
:1013D000214491F820102954401C0328F6D30CB066
:1013E00070BD00000149C97800F06CBE04510020B6
:1013F00010B504468378827A41780078C2DF0028ED
:1014000013D123796279E1882078D3DF00280CD1C9
:10141000E1782078CDDF002807D1A178C90704D171
:101420002189002901D02078D1DF10BDF8B505460B
:1014300090F82C00097888422AD195F82D00802850
:1014400026D168784E2803D04F2801D0502825D1C6
:10145000A889334E82B231482F4C801BC00895F9C1
:101460001130A97A94F82970032606EB0046B7B12B
:10147000608D904212D184F82E10002004F82C0FB9
:1014800001200DF025F9A278304626A108F05CFA7B
:1014900095F82D00072801D12548C088F8BD94F89B
:1014A00028000127C8B100200DE000BF34F820C09B
:1014B000944506D104EB800C00278CF802308CF8A0
:1014C0000310401CC0B294F828C08445EED8002F09
:1014D000DED00CF0FF000A28DAD2C0B224F82020B7
:1014E00094F8280004EB8000837094F8280004EB43
:1014F0008000C17094F828200EA104EB820090F9BE
:101500000200009034F82230304608F02CFA14F82B
:10151000280F401C2070BBE7D0530020940E04001D
:10152000940D0400416E742048723A256400000056
:10153000303E0020416E74204E65775B25645D2C43
:101540002069643A2025642C20727373693A20253F
:101550006400000010B58AB0C020DDDF08B100F0E3
:10156000C5F8224802AC00F120010EC984E80E0043
:10157000D0E90310CDE9051002A8FFF739FF08B143
:1015800000F0B4F805A800F04FF808B100F0AEF88C
:101590000A208DF8000007A8002201906946104635
:1015A000F9DF01990020024608706946F8DF08B1AA
:1015B00000F09CF800210846C4DF04460C480D49A1
:1015C0002246401AC008032101EB00400AA108F09E
:1015D000BBF9200001D000F089F80E490120C87144
:1015E00030210D48FEF769FF0AB010BD58F2030024
:1015F000940E0400940D040073645F616E745F6365
:1016000068616E6E656C5F6F70656E3A2530345838
:1016100000000000F1550020D05300200149CCDF2C
:1016200070470000AC50002010B50446407808B95F
:10163000A078B8B121792078D7DF002811D1E188CE
:101640002078D5DF00280CD1A1782078D6DF0028BB
:1016500007D161782078DADF002802D1E17820789C
:10166000D8DF10BD072010BD72B608F009FA00BF20
:1016700007F0F6FF0028FBD111481249401AC408B0
:10168000012000EB044010A108F05AF9114800684D
:10169000C00700D000BE022000EB04400EA108F0FD
:1016A0004FF9BFF34F8F0B48E43801680E4A01F43D
:1016B000E06111430160BFF34F8F00BFFDE7000001
:1016C000940E0400940D0400466174616C206572F0
:1016D000726F7200F0ED00E053797374656D2072E3
:1016E00065736574000000000400FA050EB5002162
:1016F0000091CDE901106A4644F20100FFF7B4FF02
:101700000EBD10B58268C368934203D003F044FB5A
:10171000002010BD052010BD29B112B1531E134287
:1017200003D0092070470E2070470160838000219C
:101730008160C1600846704710B58268C3689A1A14
:1017400083889A4203D803F031FB002010BD0420A7
:1017500010BD0000014802F074BF0000A05100203D
:101760003AB100680129426100D0002101610020E6
:10177000704707207047000038B5114808235822E9
:10178000416800910F49006806F0A3FD002815D1BB
:101790000D4A69460D4802F059FF04000ED101219F
:1017A0000A4802F0CEFF0123094A1946074802F011
:1017B00020FF0649012008390870204638BD000086
:1017C0008CF50300C85E0020FDCC0300A051002072
:1017D000FFFF7F0070B50446007F0D4608B1002072
:1017E00070BDA26104F040FF401941F10001C4E95D
:1017F0000201206900B125612146BDE8704000204A
:101800000CF024BD01460020087701200CF01EBD1D
:1018100070B50A4E01460A48B578FFF772FF0446D4
:101820004DB10020B070711C0122C81D07F058FA9C
:1018300008B1FFF75BFF204670BD00000852002092
:10184000D8600020F0B5244E89B01F460D00044634
:1018500072603FD0A888296882B22048FFF75CFFF9
:10186000002835D1A889A96882B21C481030FFF73A
:1018700053FF00282CD1202219496846FEF7F6FDB7
:1018800060690690207C00B101208DF814008DF86D
:101890001C70607C00B10E208DF81500E06802908D
:1018A000A068039020680190606800900A480D4A83
:1018B0006946083007F0E0F9002809D1B0702068C7
:1018C000401C05D004490122491CC81D07F008FA34
:1018D00009B0F0BD0720FBE708520020D8600020C7
:1018E000C0F70300FDE5030010B501461048FFF7FF
:1018F00023FF040019D10F480F4A0178515C19B138
:10190000001D09F057F802E00C3008F02DFF60B917
:10191000084907480839FFF7F4FE30B905490122A4
:101920000839044807F0ECF90446204610BD0000D1
:10193000E8600020105200208051002030B5EFF305
:10194000108172B60D4A9468012324B103700029F6
:1019500000D162B630BD93604FF0E023D3F88051E0
:10196000074C25401560C3F88041D3F8844154608A
:101970005A17C3F8842100220270E8E7205F002094
:10198000FC06FFBD0B498A68002A11D000280FD140
:10199000EFF3108072B60B684FF0E022C2F800310E
:1019A0004B68C2F8043100228A60002800D162B678
:1019B00070470000205F00202DE9F04106460868CE
:1019C0000C46411C4FF0A0474FF0010506D005FA28
:1019D00000F1C7F80815206807F020FD6068411C79
:1019E00002D0002107F008FD3168A069C1F8240584
:1019F000607D227D31681043C1F86C05D4E9001286
:101A00003068C0F81425C0F80C15207D012815D1C8
:101A1000A068411C02D0002107F0EEFCE068411CE8
:101A200005D08540C7F80855E06807F0F7FCD4E911
:101A300002123068C0F80825C0F81015BDE8F08122
:101A40002DE9F041064608680C46411C4FF0A047BE
:101A50004FF0010506D005FA00F1C7F80815206817
:101A600007F0E6FC6068411C02D0002107F0CDFCC5
:101A70003168A069C1F82405607D217D3268084382
:101A8000C2F86C05D4E900123068C0F80C15C0F833
:101A90001425207D012815D1A068411C02D0002109
:101AA00007F0B3FCE068411C05D08540C7F8085535
:101AB000E06807F0BDFCD4E902123068C0F80825E0
:101AC000C0F81015BDE8F08105F060BC2DE9F047C5
:101AD000814605884A484FF000088AB0017842469E
:101AE000284600F007FB99F80500400701D40021C3
:101AF00076E005F58077B8B205AB012207210AF040
:101B00009BF804003F48404A4FF00101A0EB02005F
:101B10004FEAD00001EB00460AD0204608F08EFCC8
:101B2000024630462B46394907F015FF214629E089
:101B3000284605F015F94FF6FF71044688422BD16F
:101B40008A46069805F076F80446504510D00146BE
:101B5000284605F0E5F82846FFF744FCE0B928469A
:101B60000BF0E0FB2846FFF73DFC0028BFD013E058
:101B70000AF0CAF90446504508D1304624A107F0BE
:101B8000DFFE042128460BF0FBFBB0E701462846A8
:101B900005F0C6F84FF00108B8B2224607210AF056
:101BA000C3F807001BD0862F1ED008F047FC024662
:101BB00030462B462349009407F0D5FE3946284687
:101BC0000BF0DEFB0021484609F076FFB8F1000F6C
:101BD00002D0204605F0AEF80AB0BDE8F08701213A
:101BE000484609F069FFF7E7142217496846FEF7EF
:101BF0003DFCADF80250684602F054FFEFE70000EC
:101C000004510020040E0400940D0400140004008C
:101C1000436F756C64206E6F7420616C6C6F6361D0
:101C20007465206E657720706565725F69642066F3
:101C30006F7220696E636F6D696E6720626F6E648C
:101C40002E0000003001040054F4030070B51500AC
:101C5000044609D00020286034B1206820B1A07962
:101C6000800703D0072070BD0E2070BD084600F02D
:101C7000B5F9C0B2142804D02179814203D80420D8
:101C800070BD052070BDE288216800FB021028604D
:101C9000002070BD2DE9FC470025178806461580F9
:101CA00090F82D001446894630B13A462146484600
:101CB00000F0BAFA051E09D1B0784FF00C0A18B33B
:101CC0002088C846001DB84202D95046BDE8FC87AE
:101CD000684679DF0028F9D12088032108F8001030
:101CE00020881921401C80B2208008F8001020882C
:101CF000401C80B2208000EB0801BDF800000CF011
:101D000002FF218808442080F0780222C8B121888F
:101D100096F9033001F1030C4846BC45D5D842542E
:101D200021884FF0010C491C89B2218000F801C0C4
:101D30002188491C89B2218009F801302088401C83
:101D400020807068B8B1218890F9003001F1030C4F
:101D50004846BC45B9D8425421880A22491C89B258
:101D6000218042542188491C89B2218009F8013020
:101D70002088401C2080308950B1CDE900474B4677
:101D80000622022106F108000CF0A6FF051E9DD1D7
:101D9000308A50B1CDE900474B460722032106F1B6
:101DA00010000CF099FF051E90D1308B50B1CDE999
:101DB00000474B461522142106F118000CF08CFF49
:101DC000051E83D1306A30B13B462246494601F0B8
:101DD0002CFD051EDBD1706A30B13B4622464946D8
:101DE00005F00EFD051ED2D196F82C0038B13B4609
:101DF0002246494630460BF007FC051EC7D1307815
:101E000038B13B4622464946304606F0CBF9051E1E
:101E1000BDD128465AE7F8B506464FF00000150038
:101E2000ADF8000015D009236A46304600F015F8D9
:101E30000446BDF80000064458B154B12846FEF7E8
:101E400047FBA04205D1224631462846FEF747FB14
:101E500008B10020F8BD0120F8BD70B5E0B1DAB1DD
:101E6000002402E0045D2C44A4B2651C8D4206D21D
:101E70001688A642F6D8061976789E42F2D18C4290
:101E80000AD2A31C005D9BB200B1401E0004000CEE
:101E900002D01C188C4201D9002070BD138070BD87
:101EA0002DE9F0418AB006460020ADF81400134633
:101EB000102088468DF804000D4606AA01A9184690
:101EC00064DFA6B398BB9DF80400022804D0042860
:101ED00007D0102839D10DE003208DF81000022022
:101EE00003E005208DF8100004208DF81100002477
:101EF00004AF0FE007208DF810000620F5E73B5DEA
:101F000005AA41463046FFF7A8FF641CE4B2054627
:101F1000022C04D2BDF814000028F0D003E0BDF874
:101F20001400002812D080B2064400240BE00CE01C
:101F300030199DF8042006A9FEF7D1FA48B19DF8A2
:101F40000400204484B2AC42F2D300200AB0BDE8C1
:101F5000F0810120FAE7000070B5040012D00146BC
:101F60001C221448FEF782FA1248134D05602068BF
:101F700050B17ADF002806D12068016829604068E6
:101F8000686005E00E2070BD0B487BDF0028FAD1A9
:101F900008484FF6FF711438084A20F8041B054919
:101FA000343901600021FFF7DBFB0028EBD0032070
:101FB00070BD00006C5A0020BC50002041EC0300B2
:101FC000054808B5C16800918168684606F024FAA2
:101FD0000098FFF7C1F808BD885A002010B50446E4
:101FE00000F0A4F808B1204610BD142010BD000078
:101FF00010B5044600F09AF8002805D02146BDE847
:102000001040024806F0E4B910BD0000985A0020C4
:1020100070B515460E4604460CF046FE002809D061
:10202000054800EB8400C0692A463146BDE870408F
:1020300002F0E2BE70BD0000885A002010B50446D0
:1020400000F074F8002805D02146BDE81040024891
:1020500006F0BEB910BD0000A05A002010B504461D
:1020600000F064F8002805D02146BDE81040024881
:1020700006F0AEB910BD00009C5A002070B50546B0
:10208000002400F053F838B12946044806F0A0F9BE
:1020900008B1022400E00124204670BD945A0020BB
:1020A00070B50546002400F041F838B129460448CF
:1020B00006F08EF908B1022400E00124204670BD2C
:1020C000905A002070B505460C4608460CF0ECFD11
:1020D00060B1284600F02AF840B10548294600EBD7
:1020E0008400BDE870401C3006F072B9002070BD5D
:1020F000885A002070B5054616460C4608460CF076
:10210000D3FD00280ED0284600F010F8002809D092
:102110000548324600EB84002946BDE870401C307B
:1021200002F04DBE70BD0000885A0020142801D373
:10213000002070470146014806F04AB98C5A002039
:1021400070B540B10C4D297839B104460AF032FD22
:1021500028B1002070BD0E2070BD082070BDE86859
:10216000062807D20549226801EB8001401C0A605D
:10217000E860EEE7042070BD24510020E85D0020F7
:1021800010B558B103684BB142683AB10449002018
:102190000124C8600C70C1E9013210BD0E2010BDD1
:1021A00024510020002827D0002925D0134A127876
:1021B000002A21D00A460188112911D0302907D0E0
:1021C000322909D0332917D1011D104608F096BFD6
:1021D000011D104609F090B8011D104608F068BEB8
:1021E0008088B2F8CA12884206D1002082F8C8025C
:1021F0004FF6FF70A2F8CA02704700002451002079
:1022000048B1084A137843B1D26832B190F8C82275
:102210002AB1112070470E2070470820704701F046
:10222000DFBD0000245100207CB5054608880C461F
:102230000930904201D90C207CBD68466DDF002832
:10224000FAD121880820685420881B21401C80B2C4
:10225000208029542088401C80B220802844DDF84A
:1022600001100160BDF8051081802088801D80B2BA
:1022700020809DF80010490800D0012129542088B1
:10228000401C208000207CBD1FB5044601208DF835
:10229000060041F60A00ADF80400494A01A90120F0
:1022A000A8DF00287DD122885AB14548801C0090C3
:1022B00094F83C3042F62920616801F02FF900289B
:1022C0007BD122895AB13E480A30009094F83C30C4
:1022D00042F62420E16801F021F900286DD1228A1C
:1022E0005AB137481230009094F83C3042F625201D
:1022F000616901F013F900285FD1228B5AB130488F
:102300001A30009094F83C3042F62720E16901F041
:1023100005F9002851D1228C5AB129482230009069
:1023200094F83C3042F62620616A01F0F7F8002864
:1023300043D1228D5AB122482A30009094F83C3083
:1023400042F62820E16A01F0E9F8002835D1216B36
:1023500079B102A80BF0F8FC19480822323000903D
:1023600094F83C3002A942F6232001F0D7F8002867
:1023700023D1606B60B112493A3100910279016852
:1023800094F83C3042F62A2001F0C8F8002814D115
:10239000A16B89B102A80AF018F8094842300090F0
:1023A00000E00AE094F83C30072202A942F65020EF
:1023B00001F0B4F8002800D1002004B010BD0000E6
:1023C0003451002010B504468088FFF757FE21885D
:1023D000102900D1E07B01280ED026290CD002283C
:1023E00001D01D291AD10E49204600F08DFC20464F
:1023F000BDE8104008F00CBB0A49204600F034FD4F
:102400000949204600F006FE074920461C3100F02D
:1024100070FB2046BDE8104008F070BC10BD000005
:10242000BC55002040540020543E00202DE9F047C8
:1024300001883B4E40F2F3194FF6FF7510291BD06F
:1024400011293ED0122954D0502946D1C188F28991
:10245000841D914241D1618902293ED1868830464E
:1024600004F02CFD050038D004F10C0000F01AFE39
:10247000A8B3294630464EE0C17B8788044601292F
:102480002BD1A846284604F019FD050017D02F804F
:1024900000202872234843464A460168C5F80A10BE
:1024A0004068C5F80E0004F1100105F10A0004F0BF
:1024B000C9FD6872F08900280FD129462AE004205E
:1024C00013E0808804F0FAFC040006D06068FFF78F
:1024D00099F908B10AF038FF2580BDE8F087FFE7D9
:1024E0006868FFF78FF90028F7D0BDE8F0470AF0D9
:1024F0002BBF87880646384604F0E0FC0400ECD089
:102500002B464A4606F1080104F10A0004F09AFD40
:10251000607221463846BDE8F04701F00FBA00006E
:102520006C5A0020BC5000202DE9F04F04468688EC
:102530000188424897B0834610290CD0112950D009
:10254000103019296AD01A2974D1217A0C09042C67
:102550004DD301224CE0394D083DA868C0430B9093
:1025600069680BA805F058FF0B990CA801F03EF91B
:102570002C220CA96846FDF779FF0027E946A846FA
:1025800010E000BF09EB47005FF00005B0F804A0C1
:1025900008EB85005146001D05F0DAFE6D1C1E2D6E
:1025A000F6D37F1C0098B842ECD8142E05D317B090
:1025B0000420BDE8F04FFFF799B83146584605F0C2
:1025C00012FF314608F1040005F00DFFE07B022800
:1025D00030D117B03146BDE8F04F1848001D05F066
:1025E00002BF17B03146BDE8F04F05F0B1BE002282
:1025F000314602F0E4FB032C01D3012200E000226B
:102600000E4831460C3002F0DAFB022C01D30122D5
:1026100000E0002209483146083006E0217A00290E
:1026200008D1617AC1F3C002314617B0BDE8F04F5E
:1026300002F0C5BB17B0BDE8F08F0000905A002033
:1026400010B504460748007800280AD0204604F058
:1026500063FA20460BF0D2F82046BDE8104003F0A4
:1026600089BE10BDF450002030B504008BB04FF08F
:1026700000003BD0B4F87220A2F57F43FF3B37D077
:10268000002931D080208DF8040008788DF80500ED
:1026900048788DF80600C87CADF8000001AD48B15F
:1026A000112802D91120ADF8000082B2E81C891C63
:1026B000FDF7DCFEBDF80000C01CADF800000020F6
:1026C0000690079008900990618FADF81C00ADF856
:1026D000181068460221CDE908058DF81A10B4F8E3
:1026E000720006A9AEDF0C200BB030BD0E20FBE758
:1026F0000820F9E730B591B004002BD051B3B4F8FD
:102700007200A0F57F42FF3A26D005AA204602F0CB
:10271000F5FD0546ADF80000002001900290039001
:102720000490618BADF804100121ADF808008DF81C
:10273000061005A8CDF80CD00490B4F8720001A9D9
:10274000AEDF002804D1BDF80010A94200D00C2053
:1027500011B030BD0E20FBE70820F9E730B58FB08F
:1027600004002BD051B3B4F87200A0F57F42FF3AB9
:1027700026D005AA204602F0D2FF0546ADF800009B
:1027800000200190029003900490618CADF8041039
:102790000121ADF808008DF8061005A8CDF80CD081
:1027A0000490B4F8720001A9AEDF002804D1BDF88E
:1027B0000010A94200D00C200FB030BD0E20FBE766
:1027C0000820F9E7F8B50D46060024D01DB32868A7
:1027D0003060686870604FF6FF70A6F872000120E4
:1027E0008DF8020041F62600ADF8000006F108025F
:1027F00069460120A8DF070058485949A0EB0100AD
:102800004FEAD0004FF0030101EB004405D0204611
:102810003A4654A18CE00E20F8BD2946304603F01C
:1028200004F8070003D020463A4653A180E0294629
:10283000304602F00FFE070003D020463A4652A170
:1028400076E0686948B12946304603F0D6FA0700B9
:1028500003D020463A4651A16AE0A86948B129460A
:10286000304602F0D5FC070003D020463A4650A17E
:102870005EE0E86948B12946304602F0DAFE07001A
:1028800003D020463A4650A152E0286A48B1294672
:10289000304603F0EBF8070003D020463A464EA13D
:1028A00046E02946304603F02FFA070003D02046C1
:1028B0003A464CA13CE02946304602F03BFC07007A
:1028C00003D020463A464CA132E0287CC00709D00C
:1028D0002946304603F0C7F9070003D020463A46A0
:1028E0004AA125E0287C800709D52946304602F018
:1028F0004FFE070003D020463A4649A118E0287C45
:10290000400709D52946304603F05FF8070003D099
:1029100020463A4647A10BE0287C00070CD5294603
:10292000304603F000F8070006D020463A4648A19A
:1029300007F00AF83846F8BD287CC0060CD52946B1
:10294000304602F0D3FD050006D020462A4646A1B7
:1029500006F0FAFF2846F8BD0020F8BD340E04004A
:10296000940D0400736572766963655F6164643A0F
:1029700025640D0A000000007374617475735F6153
:1029800064643A25640D0A00666561747572655F5A
:102990006164643A25640D0A000000007472656188
:1029A000646D696C6C5F6164643A25640D0A0000B3
:1029B00063726F73735F747261696E65725F616475
:1029C000643A25640D0A0000696E646F6F72626973
:1029D0006B653A25640D0A00726F7765723A25645B
:1029E0000D0A0000747261696E696E675F616464EC
:1029F0003A25640D0A000000636F6E74726F6C5F9D
:102A00006164643A25640D0A000000007370645F1D
:102A100072616E67655F6164643A25640D0A000047
:102A2000696E635F72616E67655F6164643A2564B5
:102A30000D0A00007265736973745F6C6576656C6E
:102A40005F72616E67655F6164643A25640D0A00B8
:102A5000706F7765725F72616E67655F6164643A1B
:102A600025640D0A0000000048525F72616E6765C0
:102A70005F6164643A25640D0A00000070B58AB095
:102A80000C46050031D07CB3B5F87200A0F57F414B
:102A9000FF392CD020788DF8140005AE227D611C02
:102AA000701CFDF7E3FC247D0020641CADF80040A1
:102AB000019002900390049035F8421FADF8041085
:102AC00001218DF80610ADF808006846CDE903062F
:102AD000288E01A9AEDF002804D1BDF80010A14264
:102AE00000D00C200AB070BDFFE70E20FAE70820E6
:102AF000F8E70A0001460ED000290CD010460A88DB
:102B0000102A05D0112A07D0502A04D108F0E4BCBD
:102B10008988A0F8721070474FF6FF7120F8721F75
:102B2000002101738171C171017241728172C172A0
:102B3000704730B58FB004002BD051B3B4F8720099
:102B4000A0F57F42FF3A26D005AA204603F004F8FC
:102B50000546ADF80000002001900290039004901B
:102B6000618DADF804100121ADF808008DF8061054
:102B700005A8CDF80CD00490B4F8720001A9AEDF1E
:102B8000002804D1BDF80010A94200D00C200FB0DD
:102B900030BD0E20FBE70820F9E788B068B361B3C9
:102BA000B0F87220A2F57F43FF3B28D00A788DF859
:102BB000142049788DF815100221ADF8001000217D
:102BC0000191029103910491428EADF80810ADF885
:102BD000042005A9012204918DF80620CDF80CD01F
:102BE000B0F8720001A9AEDF002804D1BDF80010D2
:102BF000022900D00C2008B070470E20FBE7082007
:102C0000F9E730B58FB004002BD051B3B4F872009F
:102C1000A0F57F42FF3A26D005AA204603F063F9CB
:102C20000546ADF80000002001900290039004904A
:102C3000618AADF804100121ADF808008DF8061086
:102C400005A8CDF80CD00490B4F8720001A9AEDF4D
:102C5000002804D1BDF80010A94200D00C200FB00C
:102C600030BD0E20FBE70820F9E738B1018012B132
:102C70001268C0F80220006905F028BD0E207047D8
:102C800030B589B000B3044601258DF820500020EE
:102C90008DF8210020216846FDF70FFC0B48CDE997
:102CA00002048DF800506088ADF812000220ADF8E3
:102CB000160008A806908DF81050228869462069F1
:102CC00005F03CFD09B030BD0E20FBE7916003002C
:102CD00008B5B8B1B1B101228DF8022041F60D025C
:102CE000ADF800200A6882604A68C26089680161A4
:102CF0004FF6FF7101800021418081806846FFF717
:102D00001FFA08BD0E2008BD0A460146100012D069
:102D1000002910D00A88112A03D0392A0BD108F0D3
:102D2000B1BA028889888A4205D14FF6FF710180C5
:102D3000002141808180704730B50446008CB7B0D7
:102D4000A0F57F42FF3A23D06A46204603F0C8FD33
:102D50000546ADF8C8000020339034903590369089
:102D60002189ADF8CC100121ADF8D0008DF8CE103E
:102D700032A83590CDF8D8D0208C33A9AEDF00280A
:102D800004D1BDF8C810A94200D00C2037B030BD26
:102D90000820FBE7F0B50446BBB00868206008795E
:102DA00060714FF6FF702084002084F82200A4F8A0
:102DB0004C00C827012684F84E708DF8EA6041F671
:102DC0000D000D46ADF8E800A21D3AA93046A8DF77
:102DD000002847D120216846FDF76FFB42F63720D7
:102DE000ADF80000ADF8047008AA0021204603F0F9
:102DF00077FDADF8060008A802908DF80C609DF8EC
:102E00000D0004F1080240F010008DF80D00287B41
:102E10008DF81300E088694600F0B0FB002821D14E
:102E2000A868F0B120216846FDF747FB42F638203C
:102E3000ADF80460ADF80000ADF80660A868029037
:102E40009DF80D0004F1100240F002008DF80D0015
:102E5000687B8DF81100E088694600F08FFB002840
:102E600000D100203BB0F0BD38B50288102A15D043
:102E7000112A15D0502A16D130F8062F8B899A4284
:102E800011D10C46418902290DD1216800290AD0AF
:102E90000C3000F007F938B1002006E0808801E02E
:102EA0004FF6FF70088438BD01208DF800002268BD
:102EB00069462046904738BD30B50A788DB0002A63
:102EC00036D18A88A2F5C0530D3B31D18A79012AC7
:102ED0002ED18DF800204A88ADF80220002242F65B
:102EE00037240B7A13E000BF02EBC20501EB450566
:102EF000ED89A5420AD102EBC20201EB42010A8B25
:102F0000ADF80420C98AADF8061002E0521C9342C5
:102F1000EAD80188A1F57F42FF3A06D0418821B95D
:102F2000818811B90199C0F80210826869469047FA
:102F30000DB030BD028C4B889A4208D10A88A2F5A8
:102F40002063773B03D10979C91E80F84E10704782
:102F5000F0B585B016460F4604001D4614D004AAED
:102F600019466069FEF772FE00280BD1A5F57F4077
:102F7000FF380BD0049848B1007848B13088C82891
:102F800008D9072005B0F0BD0E20FBE70520F9E7C2
:102F90000820F7E700200090019002900390A0889D
:102FA000ADF8000001208DF80200CDE90267694606
:102FB0002846AEDFE6E7000030B5154B0D460400AD
:102FC0000FCB85B08DE80F0020D0FDB12868A0613F
:102FD0002146684662DF002816D120788DF812005D
:102FE00045F24330ADF81000A21C04A90120A8DF6F
:102FF000002809D12946204609F034FF002803D1D2
:10300000294620460BF0EAF905B030BD0E20FBE75B
:1030100070F5030070B588B00446002927D0002C55
:1030200025D008462188102923D0502927D0572998
:103030001DD10546A188406906AAFEF707FE0028B3
:1030400015D1069E3078002811D0A86900280ED02E
:1030500018216846FDF731FA01208DF8000001952E
:10306000A088ADF808000396A9696846884708B0AB
:1030700070BD08B02146BDE8704007F0B5BF08B08C
:103080002146BDE8704008F0E5B970B504460D462C
:103090000846FDF71DFA2080656070BD0078C0F31A
:1030A00040007047007800F00100704707490B5C52
:1030B0004FF0A041D1F804250120984020EA0203F6
:1030C000C1F808351040C1F80C05704728F303001B
:1030D0000249085C012106F0DDB9000028F3030075
:1030E0000249085C002106F0D5B9000028F303006E
:1030F0000649095C4FF0A040D0F80405C84010F024
:10310000010000D0012080F00100704728F3030087
:1031100010B500242046FFF7DBFF641C042CF9D314
:1031200010BD10B500242046FFF7DAFF641C042C04
:10313000F9D310BD10B50246064B4FF0FF30002109
:103140005C5C944201D1084610BD491C0429F7D3A8
:1031500010BD00002CF303002DE9F0470D46814619
:10316000FFF7E8FF0446042836D2DFF874801B48D6
:103170001C4EA8F10C0725B3012D0ED0022D2BD12A
:1031800004EB440030444578002D25D0B96800296F
:1031900022D02846BDE8F047084704EB4401755C9F
:1031A0000E44717849B10E4A4FF48041093A806863
:1031B000FEF710FB08B987F80390B17808F80410FF
:1031C000E2E78068FEF71EFB04EB4401314418F887
:1031D00004008D78A842D7D0BDE8F08730F3030013
:1031E000A8500020085A0020044A01460020127905
:1031F000D20702D0084600F003B870479C50002068
:103200002DE9F05F6E4C054600266078B34618B194
:1032100084F801B003F07AFF6A4F4FF47A694FF4F3
:10322000C87A4FF00108182D69D2DFE805F00C13B9
:1032300013384754696E727B727BC584848484849E
:10324000B3B6B9BCC5C503F061FF3868FEF7DAFA5A
:1032500006465CE00020FFF74BFF00284FF000001F
:1032600008D0FFF735FF022D02D14FF4E16008E0EE
:10327000484606E0FFF734FF022D01D1C82000E0E8
:103280005046410CC0034FF47A72801841F100019E
:10329000257052000023FDF7A5F801462AE0002022
:1032A000FFF726FF00284FF0000004D0FFF710FFC3
:1032B0004FF44870E5E7FFF713FFDFE70020FFF763
:1032C00017FF00284FF0000002D0FFF701FFCFE703
:1032D000FFF706FFD4E70020FFF70AFF00284FF0B2
:1032E000000002D0FFF7F4FE01E0FFF7F9FE2570C1
:1032F00040F6CD4100223868FEF76CFA064646E0FB
:103300000020FFF7D3FE257008E0002051E0257073
:103310003DE084F801800120FFF7C8FE002240F262
:103320006661E8E784F801800120FFF7BFFE002214
:103330004FF40051DFE77868FEF764FA0646D5F1EE
:10334000110000D02EB10220FFF7C2FE84F802B0B7
:103350001DE0012816D980B2C8214843C117C9030E
:1033600041EA5041C0034FF47A72801841F10001E4
:1033700052000023FDF736F8014600227868FEF778
:1033800029FA06460220FFF7ABFE84F80280304699
:10339000BDE8F09F03F0BAFEB9E703F0B7FEB4E76B
:1033A00003F0B4FE04E003F0B1FE0020FFF798FE46
:1033B0000120FFF795FEAAE7FFF7B3FEA7E700009D
:1033C0009C50002030F303002DE9F84F0546861C81
:1033D00000208DF8000091460F464FF0010A684624
:1033E000FEF7ACFA1B4C04F21C4860683860D4E964
:1033F0000101194F401A3968081A0EE001214046B0
:1034000005F004F804F0A4F80146404604F0FEFF7D
:10341000D4E90101401A3968081A401C8642EDD8E7
:10342000B9F1000F03D0052065F3891002E00620F2
:1034300065F39F5061683A68114004EB8101C860F0
:103440006068304460609DF80000FEF79BFA5046CB
:10345000BDE8F88F906200203052002070B50D4614
:1034600004460A2902D10D21FFF7F8FFA06822685F
:10347000411CA1601554D4E90101814204D32046C6
:10348000BDE8704005F059BC70BD0000044881687B
:103490004068814201D10120704700207047000040
:1034A000906200201CB5044603F05AFC00236A46D3
:1034B000092108F095FC052805D10348012241792E
:1034C0002046FEF717FE1CBDC45000201CB5044664
:1034D0000020009042F6A620ADF8000001208DF8F3
:1034E0000200084801AA6946006801902046A0DF52
:1034F000002805D10448012281792046FEF7FAFD13
:103500001CBD00005CF30300C450002002490844C5
:1035100090F9300070470000005E00202DE9F04176
:1035200088B01E46DDF8388014460D00074602D1EB
:103530000020FEF7DBF814B90020FEF7D7F82021B1
:103540006846FCF7BAFF9DF80D00ADF8044040F066
:1035500002008DF80D000848ADF80070ADF8064087
:1035600002958DF8116042466946008800F006F821
:1035700008B0BDE8F0810000345100202DE9F0438F
:103580008146887891B090460C4600B901208DF8AC
:103590003E002088ADF83C0000250095607C69461F
:1035A0000AF014F96E46A07C711C0AF00FF9E07B5A
:1035B00000289DF8020002D040F0080001E020F051
:1035C00008008DF80200217C11B140F0100001E0EC
:1035D00020F010008DF80200217B11B140F00100B5
:1035E00001E020F001008DF80200217D09B10221E7
:1035F00000E0012161F342008DF802001C2102A8C5
:10360000FCF75BFF607BC10601D4800617D50E95E1
:103610000EAFE07C791C0AF0D9F89DF838000797C6
:1036200020F00F00401C20F0F00010308DF8380022
:103630009DF83A0020F00600801C8DF83A00607B6F
:103640008DF80800A07B8DF80900142109A8FCF76B
:1036500034FF0FA8CDE90906A088ADF83000A068B6
:1036600020B1E088ADF82C00A0680D90A06998B357
:1036700001950088ADF81000A06901AD01A940884E
:10368000ADF81200A069406806950390A069007B20
:103690000AF09CF8A069691C407B0AF097F8A069C1
:1036A000807A00289DF8060002D040F0080001E072
:1036B00020F008008DF80600A169C97A11B140F028
:1036C000100001E020F010008DF80600A169097AD1
:1036D00019B140F0010002E00DE020F001008DF88A
:1036E0000600A169897B09B1022100E0012161F393
:1036F00042008DF80600E06900B10590434609AA32
:1037000002A94846AADF11B0BDE8F08330B589B000
:103710000D46044620216846FCF7CFFE94F8C60209
:10372000002300EB8001C1EB801094F8C51204EB7C
:10373000400041B1491EC9B201EBC10100EB41019A
:10374000498A491C00E0C188008961F30F0360F3D6
:103750001F4303208DF800000548CDE90204054809
:1037600004932A466946806804F0E8FF09B030BD3A
:10377000913D03002451002070B504464FF6FF75BB
:103780000A462846AC4209D14FF4807421461046BF
:1037900004F0F9FD80B2A0420BD070BDFF2CFCD824
:1037A0002146104604F0DFFD90F0010F01D02046C5
:1037B00070BD284670BD10B5D0E90234D1E90220B1
:1037C000D11AA04101D3012010BD002010BD10B5B9
:1037D00002460020138806E0546834F810408C42FA
:1037E00003D0401C80B28342F6D810BD73B58CB0B4
:1037F0000646002000900D9880B100246D462146B9
:103800000DA804F0E5FD30B1009805EB4000848080
:103810000098401C0090641C142CF0D32C226946A4
:103820003046FCF723FE0EB070BD2DE9F04117883D
:103830000646B81D14460D46984202D90C20BDE834
:10384000F0813188072206290AD34FF4486C4FF6DD
:10385000FF73614501D9994202D17088062801D2CF
:103860001046ECE7604501D99842F9D1994203D05E
:10387000984201D08142F3D80520E85520881221D2
:10388000401C80B2208029542088401C80B22080B7
:10389000411930880BF037F92188084480B2208024
:1038A000411970880BF02FF92188084420800020EE
:1038B000C5E7FDF71BBF000030B587B01C21684687
:1038C000FCF7FBFD00204FF4A031CDE900014FF4DF
:1038D000F021032502918DF80C504FF6FF710590F1
:1038E000ADF80E100C48012106908DF810106846B6
:1038F000FEF732FB0446094809492246401AC0082F
:1039000005EB004007A106F01FF8200001D0FDF7ED
:10391000EDFE07B030BD0000B3380300940E040084
:10392000940D0400626C655F636F6E6E5F70617210
:10393000616D735F696E69743A25640038B54A7ABF
:103940000F4B62B100220A725969002906D0012288
:103950008DF80020ADF802006846884738BD0A7A25
:1039600062B19B684C68024619462046FDF732FF5B
:103970000028F3D0BDE8384009F0E6BC5B68F1E709
:103980006C5A0020F0B585B016460F4604461D4619
:1039900014220B496846FCF769FD0A488DF8087047
:1039A000ADF80240ADF80A608DF80C5001780022A5
:1039B0002046FEF79FFB684601F074F805B0F0BDA5
:1039C00068F403000451002070B588B0064600205A
:1039D00005900690ADF81410ADF816100190029005
:1039E00001AA05A9304690DF050021D006F026FD8A
:1039F0000346114811493246401AC108012000EB24
:103A0000014004460E4905F0A6FFBDF8042012B996
:103A1000BDF8060028B1BDF80630204609A105F022
:103A20009AFFBDF808201AB12046164905F08CFF10
:103A300008B0284670BD0000DC0D0400940D0400A1
:103A400028FC0300546865207265717565737465A0
:103A5000642054582F5258207061636B6574206C39
:103A6000656E67746820697320746F6F206C6F6E69
:103A7000672062792025752F2575206F6374657422
:103A8000732E000074FC030070B5044601464668BE
:103A90000E48FFF711FA2078032815D10C480D497C
:103AA0006388401AC108032000EB014532460AA191
:103AB000284605F050FF638896F8C4222846BDE8E2
:103AC000704013A105F047BF70BD0000BC55002039
:103AD000940E0400940D0400444220446973636F03
:103AE0007665727920696E7374616E6365202570E6
:103AF00020617661696C61626C65206F6E20636F16
:103B00006E6E2068616E646C653A2025640000006A
:103B1000466F756E642025642073657276696365EF
:103B200073206F6E20636F6E6E5F68616E646C658C
:103B30003A2025640000000070B5044609480121C0
:103B400004F07FFCBFF35F8F0025002808D12046DA
:103B500003F078FC002803D1BFF35F8F01480560B4
:103B600070BD0000D05000202DE9FF410C4620B16F
:103B70004FF4064004B0BDE8F0812079002748F2F8
:103B8000096538B141F61D5601281BD0022826D000
:103B9000681DEFE70220207102970397E06801900B
:103BA000694601A808F06AFF50B102988188E18057
:103BB00000882081BDF80010029808F0DDFFD9E7E9
:103BC0002846D7E70A4B6A460021A01D08F00EFFE1
:103BD00038B1074918398F61CF61A842CAD1304640
:103BE000C8E703488188019808F0C6FFF5E70000A0
:103BF000E05100202DE9F04389B00F46054691467B
:103C000020216846FCF759FC95F8C60295F8C54294
:103C100000EB8001C1EB801005EB400604EBC40013
:103C200006EB40013279601C0A31904232D108AB78
:103C30000022284603F028FA78B310E0401EA04284
:103C400001D1002004E004EBC40006EB40001C306E
:103C50008046024608AB284603F016FA90B10020D1
:103C6000387004208DF8000008984A46CDE90350CA
:103C70000C4802900C486946806804F05FFD09B06A
:103C8000BDE8F08395F8C5024146401C641C85F8E8
:103C9000C502E4B23079A042D0D8012038700020AB
:103CA000EDE70000913D03002451002030B59FB0A6
:103CB0000C4605467C216846FCF7FFFBADF8024048
:103CC00003208DF80000044801954168002901D0C7
:103CD000684688471FB030BD245100202DE9F041CF
:103CE000044690F8C602884600EB8001C1EB8010C4
:103CF00004EB40061746304608F05CFF050042D052
:103D0000D4F8CC0206283ED204EBC0107622A0F8EC
:103D1000D272D4F8CC02314604EBC01000F53570F5
:103D2000FCF7A4FB0026B8F1000F06D0D4F8CC02B3
:103D300004EBC01080F8D06206E0D4F8CC12022068
:103D400004EBC11181F8D002D4F8CC0204EBC0100E
:103D5000C0F84C53D4F8CC020C4D401CC4F8CC0233
:103D6000E96888420FD12746002407E007EBC41119
:103D700001F53470D1F84C138847641CE86884421C
:103D8000F4D3C7F8CC62BDE8F081000024510020D4
:103D9000F0B515469FB0002281F8C822074691F879
:103DA000C6020C4600EB8002C2EB801001EB400023
:103DB00008F000FF060009D07C2208496846FCF79D
:103DC00055FBADF8025068460197B0471FB0294631
:103DD0002046BDE8F040FFF769BF0000BCF40300D7
:103DE000F0B50D4689B004464FF4BA61FCF765FBA7
:103DF00020216846FCF761FB154E2946B06804F0A7
:103E000065FC002821D1A4F8CA52C4F8CC0284F879
:103E1000C70284F8C60284F8C5020E4801272A4664
:103E20000068206002208DF80000ADF81070206856
:103E3000CDF812000848CDE902046946B06804F0E4
:103E40007DFC002801D184F8C87209B0F0BD0000E3
:103E500024510020E85D0020913D03002DE9FE4F34
:103E60007349002644780B78324623F0020BBC2CB1
:103E700011D008DC702C7DD0B12C7CD0B82C08D1AE
:103E800023F08000CAE0BD2C76D0D82C01D181F877
:103E900000B0BDE8FE8F437B047B03EB0425654B3C
:103EA000642465439D60C47A877A04EB0724A7B233
:103EB0001F84447990F804C0BE4604EB0C2CA3F890
:103EC0001CC0CDF808C0847C90F811C004EB0C2C09
:103ED00083F825C0E246C47990F806C004EB0C24B0
:103EE00004EB840C4FF6FF7404EA4C049C800194AC
:103EF000047D90F813C004EB0C24DC800094847BD8
:103F000004EB840464005C83447A90F808C004EBFA
:103F10000C249C81A1464FEA440C474C84F802C013
:103F200090F803C090F802800CEB082CA4F804C0B1
:103F3000DDF808C0A4F810C090F807C090F806801B
:103F40000CEB082CA4F80CC090F80EC0A4F814C018
:103F5000E782A56084F81BA09C8B384B4FF6FF7C52
:103F60005C82019C5C800CEA4904DC80DF82DD60BD
:103F7000847B02E054E04DE04EE01C8283F81BA0FD
:103F8000009C9C80DFF8A8C090F80F802C4C9CF817
:103F9000007001259CF81CC04FF0020927F00407AF
:103FA000B8F1000F05D00F7084F80090657025758A
:103FB00018E0007E78B1042020702275214C0D207D
:103FC000BCF1000F607001D10D77012681F800B0BF
:103FD000087F60B117E084F800906570257547F0A0
:103FE00002000870BCF1000F01D00A7701261148C9
:103FF000BEF1000F07D1428480F824200E480283CE
:1040000082761A839A76002E3FF443AFBDE8FE4FC6
:10401000FCF712BD4A703CE723F04000087038E717
:1040200091F820000328F6D281F8202031E7000023
:10403000B85700206C5500209855002048550020A6
:10404000DC550020D0550020F0B51F48204A01461D
:10405000037F0E7B1D49158C0027CC8A6BB38369C7
:104060005B1C8361782B16D384464FF03C0EBCF862
:1040700014C08EB165450ED9A5EB0C014FF4615407
:1040800001FB04F1B1FBF3F15184B1FBFEF182F8C5
:10409000241087618582F0BD6445FCD9A4EB0C0235
:1040A0004FF4615502FB05F2B2FBF3F20A83B2FB57
:1040B000FEF28A7687618482F0BD16B185828761BF
:1040C000F0BD8482FBE70000B85700202055002097
:1040D0006C55002070B5104E307800281BD00F4C66
:1040E00004F1810594F8C21014290AD91421284634
:1040F000FCF7AAFC94F8C200143881B204F19500D0
:1041000000E00648FCF7A0FC94F8C210284600F036
:1041100017F80020307070BD985000200059002022
:1041200010B524210448FCF7C8F9044800F044F80D
:104130000149087310BD0000B8570020F05200205C
:1041400070B505460C46481EC1B22846FCF767FC10
:10415000291911F8011C884214D10B48007B58B171
:10416000012803D0042801D005280BD12146284678
:10417000BDE87040FFF772BE21462846BDE870409A
:1041800000F00EB970BD0000B857002000F002BA70
:1041900010B51923074A002112F81140844203D1B7
:1041A00002EB4100407810BD491CC9B29942F3D3DB
:1041B000002010BDD0F2030010B5044601460722CE
:1041C00013A0FCF78CF908B1062010BD0222E11DF6
:1041D00011A0FCF784F90028F7D00422E11D0FA0FC
:1041E000FCF77DF968B10322E11D0EA0FCF777F919
:1041F00048B10222E11D0CA0FCF771F928B10020A2
:1042000010BD052010BD042010BD012010BD000010
:10421000446F6D796F732D005443000042696B65E4
:1042200000000000524F5700454C00000749002095
:10423000097B41B1012905D0042903D0052901D109
:104240000348C07E70470348FBE70000B8570020D2
:10425000485500202055002070B588B020216846C0
:10426000FCF72BF94C4C4FF0F0014FF00005607853
:10427000C00714D08DF80010A1208DF80100312066
:104280008DF8020003216846FCF7C9FB8DF8030096
:10429000042168460AF01BFB657008B070BD2078E9
:1042A0004FF0C80386074FF0010213D58DF80010B8
:1042B0008DF801308DF8022003216846FCF7AFFB32
:1042C0008DF80300042168460AF001FB207820F0F5
:1042D000020016E0460701D4060714D58DF8001039
:1042E0008DF801308DF8025003216846FCF797FBEA
:1042F0008DF80300042168460AF0E9FA207820F0DE
:104300000C002070C9E7030614D58DF80010A82012
:104310008DF801008DF8022003216846FCF77FFB31
:104320008DF80300042168460AF0D1FA207820F0C5
:104330008000E6E7430603D4830601D4C006ACD56B
:104340008DF80010AD208DF801008DF80450A07894
:104350008DF80500A0798DF80A00A08800F57A7024
:10436000010A8DF80D108DF80E000C48007A10B17E
:104370008DF8122001E08DF8125016216846FCF7E6
:104380004EFB8DF81600172168460AF0A0FA207837
:1043900020F07000B5E70000B8570020F15500206C
:1043A0002DE9F00F7749002543780A782C4622F052
:1043B000020CBC2B12D008DC702B7CD0B12B7BD034
:1043C000B82B08D122F08000D2E0BD2B75D0D82BBD
:1043D00001D181F800C0BDE8F00F7047C278837842
:1043E00002EB032212B2B2F57A7F02DDA2F57A72F5
:1043F00000E05242634B16B2B1F912801F7F624A4D
:10440000624B4FF00209B0450BD04E828E809E81E8
:104410003FB1062515705670350A957082F81490D4
:1044200001259E89DE81467990F8048006EB0826F6
:104430009E84C67990F8068006EB0826B1F81080B5
:10444000B6B2B04511D00E828E7006EB86064FF6DE
:10445000FF7808EA46065E803FB105251570567064
:10446000350A957082F8149001250E8A41F2707811
:10447000B8FBF6F6FF2E00D9FF261E75C67A90F817
:104480000A809B4606EB0826B6B2DE82B246467B21
:1044900090F80C8006EB08264FF0640806FB08F63F
:1044A0009E60867C90F8118006EB0826DE76067DFD
:1044B00090F8138002E05DE056E057E006EB082636
:1044C000ABF804602F4E90F80F8001233678B8F1D6
:1044D000000F26F0040602D0407D58B32EE090F87D
:1044E0001580B8F1000F25D090F81080B8F1000FBA
:1044F00024D090F818802648B8F1000F0DD03DB9AF
:104500000426167014750D2242700FB90B77012521
:1045100081F800C0087FC8B11FE00E7082F80090DB
:104520005370137543700FB10C77012526F004000A
:1045300008700BE003201070147504E00E7082F810
:104540000090537013750FB10C7701255846BAF1DE
:10455000000F02D104838BF81A40002D3FF43BAFCB
:10456000BDE8F00FFCF768BA4C7034E722F0700039
:10457000087030E791F820000328F6D281F8204037
:1045800029E70000B8570020DC5500202055002006
:10459000D055002008B500200090F0208DF80000D4
:1045A000AC208DF8010002216846FCF738FA8DF83E
:1045B0000200032168460AF08AF908BD10B50021FF
:1045C000024803F03EFF80F3100010BDAC660020EF
:1045D0004FF480328A400168C1F848230068C0F86F
:1045E000082370474FF4A07202EB810189B200F0FA
:1045F0001CBA2DE9F04105460E464FF4A07000EBC1
:10460000860081B228684FF48034B440984622F086
:104610007F47C0F808432868C0F84843286805F079
:1046200012FC286800EB8600C0F840752868C0F8C6
:104630004443B8F1000F02D02868C0F80443BDE835
:10464000F0810068D0F804057047000070B5437928
:10465000234C44F823204279231D03EBC202224C51
:104660001579204A121BD4082DB10825022000EB31
:1046700004401EA130E005680A88C5F8082590F9B5
:1046800004208978002A4FEA411104DB02F1E0227C
:1046900082F8001405E002F00F0202F1E02282F835
:1046A000141D90F904100122002909DB01F01F05F7
:1046B00002FA05F54909890001F1E021C1F800512C
:1046C0004179002503EBC1010A71417943F83100BA
:1046D000032000EB04400EA105F032F9284670BD1E
:1046E000BC510020740E0400940D04005254432069
:1046F000696E7374616E636520616C726561647963
:1047000020696E697469616C697A65642E000000C5
:104710005254433A20696E697469616C697A6564C0
:104720002E00000090F90400002809DB00F01F02B1
:10473000012191404009800000F1E020C0F8001202
:1047400070470A46022100F067B94FF4827100F009
:104750006CB9006801210160704700680121416067
:1047600070472DE9F05F07460C464FF4A07000EB50
:1047700084001FFA80FA38684FF48036A6409B46C2
:1047800022F07F45C0F848633868C0F8086338688D
:10479000D0F8048500EB8402D2F84095C2F8408539
:1047A0005146386805F04FFBA9EB080020F07F4028
:1047B000012806D1102005F06DFE5146386805F03D
:1047C00042FB3868D0F80485C0F84463A5EB0801C3
:1047D00021F07F413868012900EB840010D0C0F837
:1047E00040553868D0F804156FF07F4C6A1A521E95
:1047F00022F07F42ACEB0B03934217D362B118E077
:104800006D1CC0F84055102005F044FE3868D0F803
:10481000040540450AD10CE000EB84006D1CC0F893
:1048200040553868D0F80405884202D00D20BDE814
:10483000F09F01223146384600F0EEF80020F6E7FE
:1048400013460A460021FFF79DB800002DE9F84302
:10485000104D0F4680461E4691466946286803F073
:104860004BFD040014D01C21FBF727FE0120207112
:10487000C4F81490380BC4F80080C4E9026069469B
:10488000286803F05AFD07F0EFFF0020BDE8F88329
:104890000420FBE730F6030010B503780022072B55
:1048A00006D2DFE803F005040610202930000A7064
:1048B00010BD01230B7003898B818388CB81C06875
:1048C00088600A7410BD02220A7002898A81828877
:1048D000CA81C2688A60807D062802D000200874E0
:1048E00010BD0120FBE703220A70C2888A81028979
:1048F000CA81C068886010BD04230B70C08888819D
:10490000CA818A6010BD0520087010BD70B5064DC3
:104910000646002455F8241009B130468847641C27
:10492000042CF7D370BD0000485F002030B504466A
:10493000006887B00D46806800281FD0182168469F
:10494000FBF7BBFD0195A0680590207910B1012807
:1049500010D107E001208DF8000020690290E06886
:10496000039005E002208DF80000E068000302904B
:1049700060690490206881686846884707B030BD48
:10498000F0B585B017460C0005463AD0112C38D04A
:10499000082C36D01C481D49401AC6080D2C11D0D1
:1049A000204605F04BFD0246012000EB06402B4659
:1049B000174904F0D0FF2A460721684603F050FC4F
:1049C00002941BE0022000EB06402A46114904F045
:1049D000BBFF2A460321684603F042FC27B1387822
:1049E000C00701D0012000E002208DF8080000205F
:1049F0008DF80C0041F20110ADF80A00684600F095
:104A00005FF805B0F0BD00000C0E0400940D04002A
:104A100050030400400204000368C3F84413002A52
:104A200002D00068C0F80413704710B500684258FF
:104A30001AB105F008FA012010BD002010BD0000D9
:104A400010B50446408802F08BF9A0800248016846
:104A50002046BDE810400847CC50002010B5044661
:104A6000808802F0C7F86080024801682046BDE8EF
:104A700010400847DC5000202DE9F0410746002493
:104A8000064E074D05E000BF56F82410384688470B
:104A9000641CE8788442F7DBBDE8F0819C5D00206F
:104AA000F450002010B50446408802F059F9A08067
:104AB000024801682046BDE81040084728F403007A
:104AC0000149096808470000B8F4030038B50446F6
:104AD0000F480078B0B1A4F57F40FF380FD068468A
:104AE00007F066FD88B10521017001210171C480C4
:104AF000684607F06BFD07F0A9FE002038BD48F2BC
:104B0000036038BD48F2016038BD48F2076038BD27
:104B1000E85100200D4808B5007888B1684607F0D4
:104B200047FD80B106210170684607F04FFD084837
:104B3000017809B10121017307F088FE002008BD4A
:104B400048F2016008BD48F2076008BDE851002046
:104B50000C600020F0B587B014216846FBF7ADFC6F
:104B6000304C207818B16846FFF7D0FE57E0201D82
:104B700003F049FC98BB40F6F8700168481C02D16C
:104B80004FF0102041694FF08050026940694B1C82
:104B900001D100FB02F1244800220161A1F540513E
:104BA000C160224904F05EFA002823D121481C2369
:104BB0008C221F49006803F08CFB06F0A5FE05005F
:104BC00016D0022D14D000270126062D14D005A8DA
:104BD00007F0EEFC98B106700C2D1BD200E01EE031
:104BE000DFE805F01810181018171817181214120B
:104BF00048F20A6007B0F0BD26706760B3E748F27C
:104C00000760F7E7077105E0032100E00221017169
:104C100000E0067105A807F0D9FC07F017FE002098
:104C2000E8E70000E85100209052002040F6030021
:104C3000585F0020A8F5030038B5040014D0694679
:104C400007F01CFFB0B1BDF8000000EB80010B487D
:104C500000EB8100C16851B1A17A41B1C168491E20
:104C6000C1600020A07238BD48F2046038BD48F22F
:104C7000056038BD48F2096038BD0000E45F0020DF
:104C800038B504460E48007888B19CB1684607F0F4
:104C90008FFC90B104210170002101712168C16075
:104CA000684607F093FC07F0D1FD002038BD48F2BC
:104CB000016038BD48F2046038BD48F2076038BD75
:104CC000E85100201FB501A9684607F08FFE04B027
:104CD00010BD07B513460A466946002007F086FE58
:104CE0000EBD07B513460A460021684607F07EFE52
:104CF0000EBD20B119B1006808600020704748F26D
:104D000004607047F8B50D46040018D0BDB169467F
:104D100007F0B4FEB0B1BDF800000C4900EB800014
:104D200001EB800001210C30666803F06FFB2E6000
:104D300060680C3068600120A0720020F8BD48F265
:104D40000460F8BD48F20960F8BD0000E45F00208F
:104D500018B1032300220AF04DB948F204607047ED
:104D6000022300220AF046B9094910B50A69042A4B
:104D70000AD0084A096942F821000548012110308B
:104D800003F044FB002010BD48F20B6010BD000092
:104D9000C8510020485F0020826883881A40036859
:104DA0009A5C0A708168491C81607047C268838878
:104DB0001A4003689954C168491CC16070470AB120
:104DC00003F011BB03F0C4BA70B5134600220546C8
:104DD000112900D10122074C33B12179FDF78AF95D
:104DE00000226178284600E06178BDE87040FDF758
:104DF00081B900000C510020F7B517460E0011D004
:104E00000098002560B100242146684603F0E0FACE
:104E100018B1A0B23946B0476D1C641C142CF3D3F2
:104E20002846FEBD0020FEBD406807F06DBC0000B6
:104E30002DE9F34F85B00E4614216846FBF73DFB84
:104E40008D488E4A3178801A8A4F4FF003098C4C76
:104E5000C2084FF0010809EB0245C1B197F87E2066
:104E60000520002A1CD00427DFF818A24FF00A0BF7
:104E700015297DD2DFE801F0F2151D4465F0F08DB3
:104E80009CF0F0F0F0F0F0F0F0CAF0F0F0002846FE
:104E90007DA104F055FD87F87E80404684F80180AE
:104EA000DAE028467BA104F04BFD207840F080003A
:104EB000AAE00221701C01F0E7FC0746BAF82620A0
:104EC000BAF8241001F0E0FDB8B1642097FBF0F1CE
:104ED00097FBF0F200FB1173284671A104F03BFD33
:104EE00097FBFBF0A178814204D0A070207840F0BD
:104EF000100089E08DF80180B0E08DF80190ADE000
:104F00000221701C01F0C0FC07B2BAF92C20BAF9DA
:104F10002A10384601F0B8FD0028EED0584697FB1D
:104F2000F0F197FBFBF20BFB1173284662A104F032
:104F300012FDA088B842DDD0A780207840F0200084
:104F400062E00221701C01F09FFC07B2BAF9322026
:104F5000BAF93010384601F097FD0028CDD097FB04
:104F6000FBF197FBFBF20BFB1173284657A100E006
:104F70007EE004F0F0FC97FBFBF0012800DA012052
:104F800094F906108142B5D0A071207840F040001D
:104F90003AE0284651A104F0D3FC207F28B92078BC
:104FA00020F0080040F002002CE08DF8017055E080
:104FB00028464DA104F0C4FC7078012809D00228CD
:104FC00014D04C4628464DA104F0BAFC8DF801409F
:104FD00044E028464BA104F0B3FC207F0028E4D035
:104FE000207820F00A0040F004000DE0284647A198
:104FF00004F0A6FC207F0028D7D0207820F0020003
:1050000040F0080020F00400207073E7284641A11A
:1050100004F096FC0221F01C01F036FC07B264207B
:1050200097FBF0F197FBF0F200FB117328463DA1CE
:1050300004F091FC5D4697FBF5F30A2B00DA0A2396
:10504000BAF93220BAF93010184601F01DFD0028D7
:1050500084D093FBF5F093E78DF8010030788DF85C
:10506000000069460598FDF7FFFA07B0BDE8F08F2C
:105070000220F1E7703E0020940E0400940D04001D
:10508000B8570020F0520020726571206374726C72
:105090000A00000072657120726573740A000000D6
:1050A0007365742073706565643A25642E2530320B
:1050B00064206B6D2F680A0073657420696E633A13
:1050C00025642E25642025250A0000007265736979
:1050D00073743D25642E25640A00000072657120FA
:1050E00073746172740A00007265712073746F705A
:1050F000206F722070617573653A00007265730AE3
:105100000000000073746F700A0000007061757316
:10511000650A00007365742062696B6520646174C0
:10512000613A00007265736973743D25642E253001
:1051300032640A0030B58FB00024054607949DF80C
:105140001C001C2120F00F00401C20F0F00010304B
:105150008DF81C009DF81D0020F00F00401C20F071
:10516000F00010308DF81D009DF81E0020F00600A4
:10517000801C8DF81E006846FBF79FF99DF8000023
:10518000039440F028008DF8000007A8CDE9044002
:1051900001208DF83A0042F6D920ADF838000D9480
:1051A0009DF83400019420F00F00401C20F0F00026
:1051B00010308DF834009DF83500069420F00F0073
:1051C000401C20F0F00010308DF835009DF83600BE
:1051D000142120F00600801C20F0180040F001008F
:1051E0008DF8360008A8FBF768F90EA808900DA8FE
:1051F00009901320ADF82800ADF82A40ADF82C0036
:10520000288905F13A0308AA6946AADF0FB030BD24
:1052100070B59AB00024054607949DF81C000E4610
:1052200020F00F00401C20F0F00010308DF81C0022
:105230009DF81D001C2120F00F00401C20F0F00004
:1052400010308DF81D009DF81E0020F00600801C17
:105250008DF81E006846FBF730F99DF800000194B8
:1052600040F010008DF8000007A8CDE904400120AF
:105270008DF8660042F6CE20ADF8640018949DF8D3
:105280006000039420F00F00401C20F0F00010306C
:105290008DF860009DF86100069420F00F00401C1E
:1052A00020F0F00010308DF861009DF862001421AC
:1052B00020F00600801C20F0180040F001008DF85E
:1052C000620008A8FBF7F9F819A8089018A8099037
:1052D0000DAA2846B16900F011F8ADF828002C207D
:1052E000ADF82C000DA8ADF82A400C90288905F1E6
:1052F0001A0308AA6946AADF1AB070BD70B50D4638
:1053000008681646114609F008FC04462878C007CC
:1053100005D13119A88809F0FBFB2044C4B22878D4
:10532000800705D53119E88809F0F2FB2044C4B2A2
:105330002878400705D53119A86809F0EEFB20440C
:10534000C4B2287800070BD53119A88909F0E0FB11
:105350002044C4B23119E88909F0DAFB2044C4B210
:105360002878C00605D53119288A09F0D1FB2044D8
:10537000C4B2287880060BD53119688A09F0C8FBB9
:105380002044C4B23119A88A09F0C2FB2044C4B237
:10539000287840060BD53119E88A09F0B9FB20447A
:1053A000C4B23119288B09F0B3FB2044C4B2287869
:1053B000000605D53119688B09F0AAFB2044C4B258
:1053C0006878C00705D03119A88B09F0A1FB2044EB
:1053D000C4B26878800705D53119E88B09F098FBCD
:1053E0002044C4B26878400710D53119288C09F0E0
:1053F0008FFB2044C4B23119688C09F089FB20442A
:10540000C0B295F824103154401CC4B2687800072B
:1054100004D595F825003055641CE4B26878C006C0
:1054200004D595F826003055641CE4B268788006EF
:1054300005D53119288D09F06BFB2044C4B268787A
:10544000400605D53119688D09F062FB2044C4B2CD
:10545000204670BD70B590B00E4605461C216846CA
:10546000FBF72BF89DF80000002440F002008DF8B7
:105470000000059401208DF83E0042F6CC20ADF8E6
:105480003C000C949DF83000019420F00F00401C6B
:1054900020F0F00010308DF830009DF832000394B9
:1054A00020F00600801C20F019008DF832000494D2
:1054B0000694142107A8FBF700F8B0680D90F06877
:1054C0000E900FA807900CA808900820ADF82400B3
:1054D000ADF828000DA8ADF826400B90288905F1FD
:1054E0000A0307AA6946AADF10B070BD70B590B074
:1054F0000E4605461C216846FAF7DFFF9DF80000BE
:10550000002440F002008DF80000049401208DF882
:105510003A0042F6D720ADF838000C949DF83000E0
:10552000019420F00F00401C20F0F00010308DF8A6
:1055300030009DF83200039420F00600801C20F01B
:1055400019008DF8320005940694142107A8FAF783
:10555000B4FF16F8440F8DF8340070788DF83500DC
:10556000B0788DF836000EA807900CA8089003209C
:10557000ADF82400ADF828000DA8ADF826400B903A
:10558000288905F16A0307AA6946AADF10B070BD31
:1055900070B590B00E4605461C216846FAF78DFF9F
:1055A0009DF80000002440F002008DF800000594F2
:1055B00001208DF83E0042F6D520ADF83C000C9459
:1055C0009DF83000019420F00F00401C20F0F00006
:1055D00010308DF830009DF83200039420F0060062
:1055E000801C20F019008DF83200049406941421D8
:1055F00007A8FAF762FFB08DADF83400F08DADF872
:105600003600308EADF838000FA807900CA808902F
:105610000620ADF82400ADF828000DA8ADF826400E
:105620000B90288905F1520307AA6946AADF10B03A
:1056300070BD70B598B00024054607949DF81C0015
:105640000E4620F00F00401C20F0F00010308DF8C6
:105650001C009DF81D001C2120F00F00401C20F0B4
:10566000F00010308DF81D009DF81E0020F006009F
:10567000801C8DF81E006846FAF71FFF9DF8000099
:10568000039440F010008DF8000007A8CDE9044015
:1056900001208DF85E0042F6D220ADF85C00169431
:1056A0009DF85800019420F00F00401C20F0F000FD
:1056B00010308DF858009DF85900069420F00F0026
:1056C000401C20F0F00010308DF859009DF85A0071
:1056D000142120F00600801C20F0180040F001008A
:1056E0008DF85A0008A8FAF7E8FE17A8089016A83F
:1056F00009900DAA2846F16900F011F8ADF82800CC
:105700002420ADF82C000DA8ADF82A400C90288973
:1057100005F1220308AA6946AADF18B070BD70B56A
:105720000D4608881646114609F0F2F90446287815
:10573000C00705D13119688809F0EAF92044C4B2DC
:105740002878800705D53119A88809F0E1F92044A7
:10575000C4B22878400705D53119E88809F0D8F98E
:105760002044C4B22878000705D53119288909F0EA
:10577000CFF92044C4B22878C00606D5A8893119CB
:1057800080B209F0C5F92044C4B22878800605D556
:105790003119288A09F0BCF92044C4B2287840069F
:1057A00005D53119688A09F0B3F92044C4B22878C4
:1057B000000605D53119A88A09F0AAF92044C4B217
:1057C0006878C0070FD03119E88A09F0A1F92044A0
:1057D000C4B23119288B09F09BF92044C0B2A97ECC
:1057E0003154401CC4B26878800703D5E87E305538
:1057F000641CE4B26878400703D5287F3055641CE8
:10580000E4B26878000705D53119E88B09F080F912
:105810002044C4B26878C00605D53119288C09F037
:1058200077F92044C4B2204670BDF0B595B000248D
:10583000054607949DF81C000E4620F00F00401C02
:1058400020F0F00010308DF81C009DF81D001C2188
:1058500020F00F00401C20F0F00010308DF81D00EB
:105860009DF81E0020F00600801C8DF81E00684682
:10587000FAF723FE9DF80000039440F010008DF825
:10588000000007A8CDE9044001208DF84E0042F643
:10589000DA20ADF84C0012949DF84800019420F0F5
:1058A0000F00401C20F0F00010308DF848009DF8EB
:1058B0004900069420F00F00401C20F0F00010304A
:1058C0008DF849009DF84A00142120F00600801C44
:1058D00020F0180040F001008DF84A0008A8FAF7FF
:1058E000ECFDB16A0DAF11F8140B8DF8340011F80E
:1058F0001329781CFAF7BAFD13A8089012A809908A
:10590000B06A05F1420308AA007D0C97401CADF86F
:1059100028001420ADF82A40ADF82C0028896946EB
:10592000AADF15B0F0BD70B590B00E4605461C213B
:105930006846FAF7C2FD9DF80000002440F002001E
:105940008DF80000059401208DF83E0042F6D82025
:10595000ADF83C000C949DF83000019420F00F004D
:10596000401C20F0F00010308DF830009DF832001F
:10597000039420F00600801C20F019008DF83200FE
:1059800004940694142107A8FAF797FD36F83E0F01
:10599000ADF834007088ADF83600B088ADF8380046
:1059A0000FA807900CA808900620ADF82400ADF8C9
:1059B00028000DA8ADF826400B90288905F1620358
:1059C00007AA6946AADF10B070BD70B590B00E4648
:1059D00005461C216846FAF770FD9DF8000000247A
:1059E00040F002008DF80000059401208DF83E0083
:1059F00042F6D620ADF83C000C949DF8300001949E
:105A000020F00F00401C20F0F00010308DF8300026
:105A10009DF83200039420F00600801C20F019004D
:105A20008DF8320004940694142107A8FAF745FD76
:105A3000708EADF83400B08EADF83600F08EADF853
:105A400038000FA807900CA808900620ADF8240095
:105A5000ADF828000DA8ADF826400B90288905F177
:105A60005A0307AA6946AADF10B070BD70B598B096
:105A70000024054607949DF81C000E4620F00F00F8
:105A8000401C20F0F00010308DF81C009DF81D0027
:105A90001C2120F00F00401C20F0F00010308DF889
:105AA0001D009DF81E0020F00600801C8DF81E00D1
:105AB0006846FAF702FD9DF80000039440F01000DC
:105AC0008DF8000007A8CDE9044001208DF85E00A4
:105AD00042F6D120ADF85C0016949DF85800019470
